:020000040000FA
:040000005DEF00F0C0
:060008005A8252EF24F0C1
:100018005A80D8CF13F1E8CF14F1E0CF15F1E1CF32
:1000280016F1E2CF17F1F6CF18F1F7CF19F1F8CFA3
:100038001AF1F5CF1BF1F0A024EF00F026EF00F045
:1000480049EF00F0F0A62BEF00F02DEF00F049EF9C
:1000580000F0F090000E0001C56F000EC66F000E94
:10006800C76F000EC86F330E0101096F060E0A6FC5
:10007800E8EC25F0000ED76E000ED66E81A247EF91
:1000880000F049EF00F042EF00F01BC1F5FF1AC184
:10009800F8FF19C1F7FF18C1F6FF17C1E2FF16C133
:1000A800E1FF15C1E0FF14C1E8FF13C1D8FF5A9062
:0600B8001000C4EF33F05C
:10060000000A0D44657669636520696E69746961E5
:100610006C697A6564207375636365737366756C62
:100620006C790A0D0054696D65723A2025302E32BE
:1006300066730054696D65723A20302E3030730055
:100640004C6F6164696E672E2E2E004C6F61646979
:100650006E672E2E004C6F6164696E672E004C6FC2
:100660006164696E6700494E46004E414E00696EF6
:1006700066006E616E006C660000000E00017B6F0C
:10068000000E7A6F30C08CF031C08DF032C08EF029
:1006900033C08FF08FBF51EF03F04FEF03F067EFE0
:1006A00003F0000E7B6F010E7A6F8CC001F08DC0DD
:1006B00002F08EC003F08FC004F071EC33F001C083
:1006C0008CF002C08DF003C08EF004C08FF0000EDD
:1006D0000001936F000E926FC1C17FF0C2C180F024
:1006E0007A517B11D8A477EF03F079EF03F081EF13
:1006F00003F00101C5A57FEF03F081EF03F09CEF4C
:1007000003F000017A517B11D8A489EF03F08BEF3D
:1007100003F091EF03F0000E656F2B0E646F95EF01
:1007200003F0000E656F2D0E646F64C000F2924BF3
:10073000932B7F07D8A080078CC001F08DC002F0FA
:100740008EC003F08FC004F0F4EC28F00104021016
:10075000D8A4ADEF03F0AFEF03F006EF04F0BF0E47
:10076000356EFF0E366E3450376E386A3550372688
:100770003650382238500AE11A0E375CD8A0C3EF41
:1007800003F0C6EF03F0010EC7EF03F0000E000107
:10079000666F676B66516711D8B4D1EF03F0D3EF82
:1007A00003F0E1EF03F0000E9225016E020E93219B
:1007B000026E660E036E060E046EBEEC30F0EDEFB8
:1007C00003F0000E9225016E020E9321026E6E0E52
:1007D000036E060E046EBEEC30F00001FD0E7F27A6
:1007E000FF0E80232EC011F02FC012F0000E136EEA
:1007F000020E146E7FC015F080C016F0CAEC2CF00B
:1008000011C02EF012C02FF01FEF09F08CC001F0C4
:100810008DC002F08EC003F08FC004F0F4EC28F01D
:1008200001500210D8A417EF04F019EF04F059EFAB
:1008300004F0BF0E356EFF0E366E3450376E386AD8
:10084000355037263650382238500AE11A0E375CB8
:10085000D8A02DEF04F030EF04F0010E31EF04F0DA
:10086000000E0001686F696B68516911D8B43BEFE5
:1008700004F03DEF04F04BEF04F0000E9225016E02
:10088000020E9321026E6A0E036E060E046EBEEC1B
:1008900030F0EDEF03F0000E9225016E020E932171
:1008A000026E720E036E060E046EBEEC30F0EDEFBB
:1008B00003F0000E0001946F000E956F800E966F8E
:1008C0003F0E976F000E916F000E906F8CC001F07D
:1008D0008DC002F08EC003F08FC004F0000E056ED4
:1008E000000E066E000E076E000E086E96EC2EF0DF
:1008F000D8B07DEF04F07FEF04F002EF05F09EEF3B
:1009000004F094C001F095C002F096C003F097C0C7
:1009100004F0000E056E000E066E200E076E410EEE
:10092000086EFCEC1AF001C094F002C095F003C010
:1009300096F004C097F00001904B912B8CC01AF0F8
:100940008DC01BF08EC01CF08FC01DF0000E056E18
:10095000000E066E200E076E410E086E94C001F068
:1009600095C002F096C003F097C004F0FCEC1AF0BA
:1009700001C01EF002C01FF003C020F004C021F02F
:1009800072EC27F0D8B0C7EF04F0C9EF04F081EFA4
:1009900004F0E9EF04F094C001F095C002F096C0B5
:1009A00003F097C004F0000E056E000E066E200ED8
:1009B000076E410E086EDFEC1EF001C094F002C01D
:1009C00095F003C096F004C097F000019007D8A0FE
:1009D00091078CC01AF08DC01BF08EC01CF08FC028
:1009E0001DF094C01EF095C01FF096C020F097C077
:1009F00021F072EC27F0D8A000EF05F002EF05F02F
:100A0000CBEF04F034C007F0086A5FEC30F0075019
:100A10000001816F81C07EF0670E8119D8A413EFA9
:100A200005F015EF05F03DEF05F00101C351C411CC
:100A3000D8A41DEF05F01FEF05F023EF05F0000E21
:100A4000C46F010EC36FC4BF30EF05F0C45106E19F
:100A5000C305D8B02EEF05F030EF05F037EF05F005
:100A6000000E00017D6F060E7C6F47EF05F0C3C1DD
:100A70007CF0C4C17DF047EF05F00101C4BF43EF36
:100A800005F045EF05F030EF05F037EF05F0670EA4
:100A900000018119D8A44FEF05F051EF05F080EF68
:100AA00005F091AF5FEF05F0FC0E905DFF0E9159E0
:100AB000D8A05DEF05F05FEF05F07EEF05F0FF0ECB
:100AC000356EFF0E366E7CC037F07DC038F0355085
:100AD0003726365038229051375C3850800A396EAC
:100AE0009151800A3958D8A078EF05F07AEF05F0D7
:100AF0007EEF05F0660E7E6F80EF05F0650E7E6F6F
:100B00007CC074F07DC075F0670E8119D8A48BEF9E
:100B100005F08DEF05F09DEF05F0660E7E19D8A467
:100B200094EF05F096EF05F09FEF05F091BF9DEF74
:100B300005F09BEF05F09FEF05F0744B752B660EEB
:100B40007E19D8A4A6EF05F0A8EF05F0C8EF05F0D0
:100B500091BFAFEF05F0ADEF05F0BBEF05F0000E74
:100B6000946F000E956F800E966F3F0E976F000E7C
:100B7000916F000E906F670E8119D8B4C2EF05F027
:100B8000C4EF05F0C8EF05F090517427915175231B
:100B9000000E8B6F000E8A6F8CC082F08DC083F0C8
:100BA0008EC084F08FC085F094C060F095C061F075
:100BB00096C062F097C063F059EF06F082C001F072
:100BC00083C002F084C003F085C004F094C005F037
:100BD00095C006F096C007F097C008F0DFEC1EF055
:100BE00001C01AF002C01BF003C01CF004C01DF0CD
:100BF000B7EC21F01AC086F01BC087F01CC088F04B
:100C00001DC089F086C001F087C002F088C003F0E3
:100C100089C004F0EFEC26F001C078F002C079F052
:100C200082C01AF083C01BF084C01CF085C01DF088
:100C300094C005F095C006F096C007F097C008F084
:100C400086C001F087C002F088C003F089C004F0BC
:100C5000FCEC1AF001C01EF002C01FF003C020F02F
:100C600004C021F099EC32F01AC082F01BC083F06E
:100C70001CC084F01DC085F094C001F095C002F046
:100C800096C003F097C004F0000E056E000E066ECD
:100C9000200E076E410E086EDFEC1EF001C094F0CE
:100CA00002C095F003C096F004C097F000018A4B93
:100CB0008B2B74518A5D8B51800A356E7551800A79
:100CC0003558D8A066EF06F068EF06F0DEEF05F0C5
:100CD00094C001F095C002F096C003F097C004F0F4
:100CE000000E056E000E066EA00E076E400E086E1A
:100CF000FCEC1AF001C086F002C087F003C088F057
:100D000004C089F082C01AF083C01BF084C01CF0BC
:100D100085C01DF086C01EF087C01FF088C020F07F
:100D200089C021F072EC27F0D8B099EF06F09BEF64
:100D300006F0A6EF06F0000E0001866F000E876F2A
:100D4000000E886F000E896FCFEF06F082C001F0B1
:100D500083C002F084C003F085C004F086C005F0B3
:100D600087C006F088C007F089C008F096EC2EF026
:100D7000D8A0BDEF06F0BFEF06F0CFEF06F0000100
:100D800078B1C5EF06F0C7EF06F0CFEF06F0000E22
:100D9000866F000E876F000E886F000E896F8CC003
:100DA00001F08DC002F08EC003F08FC004F086C049
:100DB00005F087C006F088C007F089C008F086EC0F
:100DC00016F001C082F002C083F003C084F004C0BA
:100DD00085F060C094F061C095F062C096F063C089
:100DE00097F0650E00017E19D8B4F9EF06F0FBEF1D
:100DF00006F001EF07F090C076F091C077F005EFB4
:100E000007F0000E776F000E766F000E736F000E06
:100E1000726F000E716F000E706F000E8B6F000E00
:100E20008A6F02EF08F082C001F083C002F084C034
:100E300003F085C004F094C005F095C006F096C09C
:100E400007F097C008F0DFEC1EF001C01AF002C0F6
:100E50001BF003C01CF004C01DF0B7EC21F01AC059
:100E600086F01BC087F01CC088F01DC089F086C0CA
:100E700001F087C002F088C003F089C004F0EFECF5
:100E800026F001C078F002C079F00101C5B94BEF3E
:100E900007F04DEF07F06BEF07F000017851791183
:100EA000D8A455EF07F057EF07F06BEF07F0670E88
:100EB0008119D8A45EEF07F060EF07F06BEF07F041
:100EC00077BF67EF07F065EF07F06BEF07F0704B48
:100ED000712BB6EF07F0000172517311D8A473EFB4
:100EE00007F075EF07F09FEF07F077BF7CEF07F093
:100EF0007AEF07F09FEF07F0000E9225D96E020EF1
:100F00009321DA6E2E0EDF6E924B932B7F07D8A0C3
:100F10008007000E736F010E726F9FEF07F0000ED7
:100F20009225D96E020E9321DA6E300EDF6E924B4F
:100F3000932B7F07D8A080077007D8A07107705146
:100F40007111D8A4A6EF07F0A8EF07F08FEF07F014
:100F5000000E9225D96E020E9321DA6E7851300F71
:100F6000DF6E924B932B7F07D8A0800782C01AF0C8
:100F700083C01BF084C01CF085C01DF094C005F038
:100F800095C006F096C007F097C008F086C001F043
:100F900087C002F088C003F089C004F0FCEC1AF0AE
:100FA00001C01EF002C01FF003C020F004C021F0F9
:100FB00099EC32F01AC082F01BC083F01CC084F0A0
:100FC0001DC085F094C001F095C002F096C003F0FA
:100FD00097C004F0000E056E000E066E200E076E20
:100FE000410E086EDFEC1EF001C094F002C095F0D7
:100FF00003C096F004C097F000017607D8A07707E9
:101000008A4B8B2B74518A5D8B51800A356E7551DA
:10101000800A3558D8B00FEF08F011EF08F01FEF35
:1010200008F093BF1DEF08F0935109E14B0E925D5C
:10103000D8A01DEF08F01FEF08F013EF07F0725172
:101040007311D8A426EF08F028EF08F03BEF08F062
:101050000101C5A92EEF08F030EF08F03BEF08F0D2
:10106000000E00019225D96E020E9321DA6E2E0E2B
:10107000DF6E924B932B000E00019225D96E020E6B
:101080009321DA6E000EDF6E650E7E19D8A44BEF49
:1010900008F04DEF08F0F2EF03F0000E8B6F4F0EEB
:1010A0008A6F000E8A25D96E020E8B21DA6E000E31
:1010B000DF6E000E7B6F000E7A6F91BF64EF08F059
:1010C00062EF08F06CEF08F0000E7B6F010E7A6F94
:1010D000906D911FD8B0912B000E7D6F020E7C6F2A
:1010E0009DEF08F08A07D8A08B07000E8A25D96EDD
:1010F000020E8B21DA6E90C001F091C002F0000E5A
:10110000046E0A0E036EE8EC2DF00150300FDF6E16
:1011100090C001F091C002F0000E046E0A0E036E42
:101120002DEC2DF001C090F002C091F000017C0781
:10113000D8A07D077F07D8A0800790519111D8A42F
:10114000A4EF08F0A6EF08F072EF08F07DBFB3EF50
:1011500008F07D5106E17C05D8B0B1EF08F0B3EF9F
:1011600008F072EF08F08A07D8A08B077A517B113C
:10117000D8A4BDEF08F0BFEF08F0C5EF08F0000EEF
:101180006B6F2B0E6A6FC9EF08F0000E6B6F2D0EA0
:101190006A6F000E8A25D96E020E8B21DA6E6AC044
:1011A000DFFF7F07D8A080078A07D8A08B07BF0E74
:1011B000356EFF0E366E3450376E386A355037262E
:1011C0003650382238500AE11A0E375CD8A0EBEFBF
:1011D00008F0EEEF08F0010EEFEF08F0000E6E6F72
:1011E0006F6B6E516F11D8A4F8EF08F0FAEF08F0AA
:1011F00000EF09F0000E6D6F650E6C6F04EF09F0E3
:10120000000E6D6F450E6C6F000E8A25D96E020EB2
:101210008B21DA6E6CC0DFFF7F07D8A08007000E3D
:101220009225016E020E9321026E000E8A25036E36
:10123000020E8B21046EBEEC30F0F2EF03F01200D0
:10124000000E0101706F000E6F6F4BC181F14CC138
:1012500082F14DC183F14EC184F184BF34EF09F0B6
:1012600032EF09F04AEF09F0000E706F010E6F6F58
:1012700081C11CF182C11DF183C11EF184C11FF126
:101280001BEC33F01CC181F11DC182F11EC183F141
:101290001FC184F1000E0101886F000E876FC1C16C
:1012A00074F1C2C175F16F517011D8A45AEF09F0F1
:1012B0005CEF09F063EF09F0C5A561EF09F063EF9A
:1012C00009F07DEF09F06F517011D8A46AEF09F0B1
:1012D0006CEF09F072EF09F0000E5A6F2B0E596F88
:1012E00076EF09F0000E5A6F2D0E596F59C100F2BA
:1012F000874B882B7407D8A0750781C11CF182C168
:101300001DF183C11EF184C11FF1F4EC27F001012E
:101310001C051D11D8A48FEF09F091EF09F0E8EF3B
:1013200009F0BF0E506FFF0E516F4F51526F536B4C
:10133000505152275151532353510AE11A0E525D15
:10134000D8A0A5EF09F0A8EF09F0010EA9EF09F068
:10135000000E5B6F5C6B5B515C11D8B4B2EF09F0AF
:10136000B4EF09F0C2EF09F0000E87251C6F020EE2
:1013700088211D6F660E1E6F060E1F6F8FEC30F0FA
:10138000CEEF09F0000E87251C6F020E88211D6F1D
:101390006E0E1E6F060E1F6F8FEC30F00101FD0EFA
:1013A0007427FF0E752349C12CF14AC12DF1000E9F
:1013B00001012E6F020E2F6F74C130F175C131F132
:1013C0009DEC2BF02CC149F12DC14AF1FDEF0EF03F
:1013D00081C11CF182C11DF183C11EF184C11FF1C5
:1013E000F4EC27F001011C511D11D8A4FAEF09F00B
:1013F000FCEF09F03BEF0AF0BF0E506FFF0E516F8C
:101400004F51526F536B50515227515153235351E7
:101410000AE11A0E525DD8A010EF0AF013EF0AF09D
:10142000010E14EF0AF0000E5D6F5E6B5D515E11F0
:10143000D8B41DEF0AF01FEF0AF02DEF0AF0000EEE
:1014400087251C6F020E88211D6F6A0E1E6F060E07
:101450001F6F8FEC30F0CEEF09F0000E87251C6F68
:10146000020E88211D6F720E1E6F060E1F6F8FEC0D
:1014700030F0CEEF09F0000E896F000E8A6F800EFB
:101480008B6F3F0E8C6F000E866F000E856F81C1D3
:101490001CF182C11DF183C11EF184C11FF1000E38
:1014A000206F000E216F000E226F000E236F40ECA4
:1014B0002EF00101D8B05FEF0AF061EF0AF0E6EF1D
:1014C0000AF080EF0AF089C11CF18AC11DF18BC1BD
:1014D0001EF18CC11FF1000E206F000E216F200E37
:1014E000226F410E236FE6EC18F01CC189F11DC17B
:1014F0008AF11EC18BF11FC18CF10101854B862B36
:1015000081C135F182C136F183C137F184C138F12F
:10151000000E206F000E216F200E226F410E236FF0
:1015200089C11CF18AC11DF18BC11EF18CC11FF153
:10153000E6EC18F01CC139F11DC13AF11EC13BF1B6
:101540001FC13CF16CEC26F00101D8B0AAEF0AF003
:10155000ACEF0AF063EF0AF0CCEF0AF089C11CF19E
:101560008AC11DF18BC11EF18CC11FF1000E206FCD
:10157000000E216F200E226F410E236F11EC1DF023
:101580001CC189F11DC18AF11EC18BF11FC18CF1F3
:1015900001018507D8A0860781C135F182C136F1E6
:1015A00083C137F184C138F189C139F18AC13AF177
:1015B0008BC13BF18CC13CF16CEC26F00101D8A051
:1015C000E4EF0AF0E6EF0AF0AEEF0AF04FC122F1C5
:1015D000236BFDEC2FF001012251766F76C173F180
:1015E000670E7619D8A4F7EF0AF0F9EF0AF01FEFAB
:1015F0000BF0C351C411D8A400EF0BF002EF0BF0B5
:1016000006EF0BF0000EC46F010EC36FC4BF13EFE3
:101610000BF0C45106E1C305D8B011EF0BF013EF86
:101620000BF019EF0BF0000E726F060E716F28EFC2
:101630000BF0C3C171F1C4C172F128EF0BF0C4BF4C
:1016400024EF0BF026EF0BF013EF0BF019EF0BF07C
:10165000670E7619D8A42FEF0BF031EF0BF060EF87
:101660000BF086AF3FEF0BF0FC0E855DFF0E865949
:10167000D8A03DEF0BF03FEF0BF05EEF0BF0FF0E4D
:10168000506FFF0E516F71C152F172C153F1505141
:101690005227515153238551525D5351800A546F43
:1016A0008651800A5459D8A058EF0BF05AEF0BF02E
:1016B0005EEF0BF0660E736F60EF0BF0650E736FED
:1016C00071C169F172C16AF1670E7619D8A46BEF26
:1016D0000BF06DEF0BF07DEF0BF0660E7319D8A4D5
:1016E00074EF0BF076EF0BF07FEF0BF086BF7DEF22
:1016F0000BF07BEF0BF07FEF0BF0694B6A2B660E64
:101700007319D8A486EF0BF088EF0BF0A8EF0BF05D
:1017100086BF8FEF0BF08DEF0BF09BEF0BF0000E01
:10172000896F000E8A6F800E8B6F3F0E8C6F000EDC
:10173000866F000E856F670E7619D8B4A2EF0BF096
:10174000A4EF0BF0A8EF0BF08551692786516A23AF
:10175000000E806F000E7F6F81C177F182C178F13A
:1017600083C179F184C17AF189C155F18AC156F1F9
:101770008BC157F18CC158F13AEF0CF077C11CF1D5
:1017800078C11DF179C11EF17AC11FF189C120F123
:101790008AC121F18BC122F18CC123F111EC1DF022
:1017A0001CC135F11DC136F11EC137F11FC138F121
:1017B000ACEC20F035C17BF136C17CF137C17DF155
:1017C00038C17EF17BC11CF17CC11DF17DC11EF1D0
:1017D0007EC11FF164EC25F01CC16DF11DC16EF1DD
:1017E00077C135F178C136F179C137F17AC138F175
:1017F00089C120F18AC121F18BC122F18CC123F171
:101800007BC11CF17CC11DF17DC11EF17EC11FF1A8
:10181000E6EC18F01CC139F11DC13AF11EC13BF1D3
:101820001FC13CF151EC32F035C177F136C178F18E
:1018300037C179F138C17AF189C11CF18AC11DF132
:101840008BC11EF18CC11FF1000E0101206F000E33
:10185000216F200E226F410E236F11EC1DF01CC171
:1018600089F11DC18AF11EC18BF11FC18CF10101EB
:101870007F4B802B69517F5D8051800A506F6A5188
:10188000800A5059D8A047EF0CF049EF0CF0BEEF9A
:101890000BF089C11CF18AC11DF18BC11EF18CC1F5
:1018A0001FF1000E206F000E216FA00E226F400E60
:1018B000236FE6EC18F01CC17BF11DC17CF11EC149
:1018C0007DF11FC17EF177C135F178C136F179C163
:1018D00037F17AC138F17BC139F17CC13AF17DC170
:1018E0003BF17EC13CF16CEC26F00101D8B07BEFFE
:1018F0000CF07DEF0CF087EF0CF0000E7B6F000E0C
:101900007C6F000E7D6F000E7E6FB0EF0CF077C124
:101910001CF178C11DF179C11EF17AC11FF17BC1A3
:1019200020F17CC121F17DC122F17EC123F140EC87
:101930002EF00101D8A09FEF0CF0A1EF0CF0B0EF5A
:101940000CF06DB1A6EF0CF0A8EF0CF0B0EF0CF0BE
:10195000000E7B6F000E7C6F000E7D6F000E7E6FA1
:1019600081C11CF182C11DF183C11EF184C11FF12F
:101970007BC120F17CC121F17DC122F17EC123F127
:1019800025EC14F01CC177F11DC178F11EC179F16D
:101990001FC17AF155C189F156C18AF157C18BF146
:1019A00058C18CF1650E01017319D8B4DAEF0CF04F
:1019B000DCEF0CF0E2EF0CF085C16BF186C16CF14D
:1019C000E6EF0CF0000E6C6F000E6B6F000E686F90
:1019D000000E676F000E666F000E656F000E806F61
:1019E000000E7F6FE2EF0DF077C11CF178C11DF1A1
:1019F00079C11EF17AC11FF189C120F18AC121F19B
:101A00008BC122F18CC123F111EC1DF01CC135F109
:101A10001DC136F11EC137F11FC138F1ACEC20F009
:101A200035C17BF136C17CF137C17DF138C17EF122
:101A30007BC11CF17CC11DF17DC11EF17EC11FF176
:101A400064EC25F01CC16DF11DC16EF10101C5B939
:101A50002CEF0DF02EEF0DF04BEF0DF06D516E11E0
:101A6000D8A435EF0DF037EF0DF04BEF0DF0670E0A
:101A70007619D8A43EEF0DF040EF0DF04BEF0DF0CE
:101A80006CBF47EF0DF045EF0DF04BEF0DF0654BE0
:101A9000662B95EF0DF067516811D8A452EF0DF049
:101AA00054EF0DF07EEF0DF06CBF5BEF0DF059EFD2
:101AB0000DF07EEF0DF0000E8725D96E020E882105
:101AC000DA6E2E0EDF6E874B882B7407D8A0750751
:101AD000000E686F010E676F7EEF0DF0000E872518
:101AE000D96E020E8821DA6E300EDF6E874B882B9E
:101AF0007407D8A075076507D8A0660765516611F9
:101B0000D8A485EF0DF087EF0DF06EEF0DF0000E0D
:101B10008725D96E020E8821DA6E6D51300FDF6E87
:101B2000874B882B7407D8A0750777C135F178C12A
:101B300036F179C137F17AC138F189C120F18AC112
:101B400021F18BC122F18CC123F17BC11CF17CC13D
:101B50001DF17DC11EF17EC11FF1E6EC18F01CC124
:101B600039F11DC13AF11EC13BF11FC13CF151ECED
:101B700032F035C177F136C178F137C179F138C12A
:101B80007AF189C11CF18AC11DF18BC11EF18CC192
:101B90001FF1000E0101206F000E216F200E226F39
:101BA000410E236F11EC1DF01CC189F11DC18AF19A
:101BB0001EC18BF11FC18CF101016B07D8A06C070E
:101BC0007F4B802B69517F5D8051800A506F6A5135
:101BD000800A5059D8B0EFEF0DF0F1EF0DF0FFEFA4
:101BE0000DF088BFFDEF0DF0885109E14B0E875DC8
:101BF000D8A0FDEF0DF0FFEF0DF0F4EF0CF0675102
:101C00006811D8A406EF0EF008EF0EF019EF0EF0F1
:101C1000C5A90DEF0EF00FEF0EF019EF0EF0000E4C
:101C20008725D96E020E8821DA6E2E0EDF6E874B65
:101C3000882B000E8725D96E020E8821DA6E000EE1
:101C4000DF6E650E7319D8A428EF0EF02AEF0EF0A0
:101C5000D3EF09F0000E806F4F0E7F6F000E7F25CF
:101C6000D96E020E8021DA6E000EDF6E000E706FEC
:101C7000000E6F6F86BF41EF0EF03FEF0EF049EFA1
:101C80000EF0000E706F010E6F6F856D861FD8B05D
:101C9000862B000E726F020E716F7BEF0EF07F07C6
:101CA000D8A08007000E7F25D96E020E8021DA6E43
:101CB00085C11CF186C11DF1000E1F6F0A0E1E6F3B
:101CC0008FEC2DF001011C51300FDF6E85C11CF12E
:101CD00086C11DF1000E1F6F0A0E1E6F67EC2CF0FF
:101CE0001CC185F11DC186F101017107D8A07207E1
:101CF0007407D8A0750785518611D8A482EF0EF01D
:101D000084EF0EF04FEF0EF072BF91EF0EF07251B4
:101D100006E17105D8B08FEF0EF091EF0EF04FEFA6
:101D20000EF07F07D8A080076F517011D8A49BEFE9
:101D30000EF09DEF0EF0A3EF0EF0000E606F2B0E75
:101D40005F6FA7EF0EF0000E606F2D0E5F6F000E3D
:101D50007F25D96E020E8021DA6E5FC1DFFF740726
:101D6000D8A075077F07D8A08007BF0E506FFF0E61
:101D7000516F4F51526F536B505152275151532352
:101D800053510AE11A0E525DD8A0C9EF0EF0CCEF04
:101D90000EF0010ECDEF0EF0000E636F646B635119
:101DA0006411D8A4D6EF0EF0D8EF0EF0DEEF0EF0EF
:101DB000000E626F650E616FE2EF0EF0000E626F53
:101DC000450E616F000E7F25D96E020E8021DA6EFE
:101DD00061C1DFFF7407D8A07507000E87251C6F4F
:101DE000020E88211D6F000E7F251E6F020E8021BE
:101DF0001F6F8FEC30F0D3EF09F012008FC1D9FFC5
:101E000090C1DAFFDECFF6FFDDCFF7FF0800F55017
:101E1000250AD8A40EEF0FF010EF0FF075EF11F0B8
:101E20008FC1D9FF90C1DAFFDE2A000EDD22000E3D
:101E30000101C26F000EC16FC1C1C5F1C2C1C6F1BF
:101E4000C369C469000E986F000E976F6EEF0FF0B4
:101E5000C5818FC1D9FF90C1DAFFDE2A000EDD22D5
:101E60006EEF0FF0C58329EF0FF0C58529EF0FF056
:101E7000C58729EF0FF0C58929EF0FF0000E986F85
:101E8000010E976F6EEF0FF08FC1D9FF90C1DAFF8F
:101E9000DECFF6FFDDCFF7FF0800F550936F946BB0
:101EA0009451000AD8B457EF0FF03EEF0FF0935162
:101EB000200AD8B438EF0FF0030AD8B43BEF0FF084
:101EC000080AD8B435EF0FF0060AD8B428EF0FF09F
:101ED0001D0AD8B432EF0FF03EEF0FF09751981172
:101EE000D8B475EF0FF077EF0FF044EF0FF0C5A106
:101EF0007CEF0FF07EEF0FF07FEF0FF0C5938FC1F7
:101F0000D9FF90C1DAFFDECFF6FFDDCFF7FF080083
:101F1000F5502E0AD8A48FEF0FF091EF0FF00FEFCE
:101F200010F0000EC46F000EC36F8FC1D9FF90C1B7
:101F3000DAFFDE2A000EDD228FC1D9FF90C1DAFF61
:101F4000DECFF6FFDDCFF7FF0800F5502A0AD8A450
:101F5000ACEF0FF0AEEF0FF0CBEF0FF08FC1D9FF6A
:101F600090C1DAFFDE2A000EDD2291C1D9FF92C1B5
:101F7000DAFFDFCF93F1020EDE26DFCF94F1000E01
:101F8000DD2293C1D9FF94C1DAFFDECFC3F1DDCFEB
:101F9000C4F10FEF10F08FC1D9FF90C1DAFFDECF8F
:101FA00023F1DDCF24F1C0EC22F023C1C3F124C121
:101FB000C4F1E2EF0FF08FC1D9FF90C1DAFFDE2A42
:101FC000000EDD22D00E0101936FFF0E946F8FC1C2
:101FD000D9FF90C1DAFFDECFF6FFDDCFF7FF0800B3
:101FE000F550956F966B9351952794519623965182
:101FF0000AE10A0E955DD8A000EF10F003EF10F093
:10200000010E04EF10F0000E996F9A6B99519A111E
:10201000D8A40DEF10F00FEF10F0DBEF0FF08FC131
:10202000D9FF90C1DAFFDECFF6FFDDCFF7FF080062
:10203000F550226F236BFDEC2FF001012251A26FAE
:10204000A251D8B426EF10F028EF10F062EF10F094
:102050008FC1D9FF90C1DAFFDECF93F1DDCF94F1CC
:10206000010E9327000E942393C1F6FF94C1F7FF4E
:102070000800F550226F236BFDEC2FF00101225177
:10208000A36FA351D8B447EF10F049EF10F062EFFF
:1020900010F08FC1D9FF90C1DAFFDECF93F1DDCF11
:1020A00094F1020E9327000E942393C1F6FF94C17E
:1020B000F7FF0800F550226F236BFDEC2FF00101B4
:1020C0002251A46F660EA219D8A469EF10F06BEF2D
:1020D00010F0ABEF10F08FC1D9FF90C1DAFFDECF67
:1020E000F6FFDDCFF7FF0800F5CFA1F18FC1D9FFD3
:1020F00090C1DAFFDE2A000EDD2291C1D9FF92C124
:10210000DAFFDFCF93F1040EDE26DFCF94F1000E6D
:10211000DD2293C1D9FF94C1DAFFDECF9DF1DECF7E
:102120009EF1DECF9FF1DECFA0F18DC149F18EC1CE
:102130004AF19DC14BF19EC14CF19FC14DF1A0C12F
:102140004EF1A1C14FF120EC09F049C18DF14AC116
:102150008EF191EF11F0A20E1C6F010E1D6F760E25
:102160001E6F060E1F6F000E216F020E206F60ECB7
:102170002AF001011C511D11D8A4C1EF10F0C3EFCA
:1021800010F03EEF11F08FC1D9FF90C1DAFFDECF22
:1021900093F1DDCF94F1010E9327000E942393C1A8
:1021A000F6FF94C1F7FF0800F5CFA1F1BF0E936FC2
:1021B000FF0E946F8FC1D9FF90C1DAFFDECFF6FF1B
:1021C000DDCFF7FF0800F550956F966B935195277B
:1021D0009451962396510AE11A0E955DD8A0F3EF1B
:1021E00010F0F6EF10F0010EF7EF10F0000E9B6FFD
:1021F0009C6B9B519C11D8B400EF11F002EF11F0D1
:102200001CEF11F091C1D9FF92C1DAFFDFCF93F13A
:10221000040EDE26DFCF94F1000EDD2293C1D9FF3C
:1022200094C1DAFFDECF9DF1DECF9EF1DECF9FF1CC
:10223000DECFA0F134EF11F091C1D9FF92C1DAFFE6
:10224000DFCF93F1040EDE26DFCF94F1000EDD2206
:1022500093C1D9FF94C1DAFFDECF9DF1DECF9EF1AD
:10226000DECF9FF1DECFA0F1020E8FC1D9FF90C16A
:10227000DAFFDE26000EDD2295EF10F08FC1D9FFC8
:1022800090C1DAFFDECFF6FFDDCFF7FF0800F55093
:10229000250AD8A44EEF11F050EF11F068EF11F0BD
:1022A0008FC1D9FF90C1DAFFDE2A000EDD22000EB9
:1022B0001D6F250E1C6F8DC11EF18EC11FF137ECF5
:1022C0002BF0000E01018E6F010E8D6F91EF11F05A
:1022D0008FC1D9FF90C1DAFFDE2A000EDD22000E89
:1022E0008E6F000E8D6F91EF11F08FC1D9FF90C1ED
:1022F000DAFFDECFF6FFDDCFF7FF0800F550010172
:102300001C6F1D6B8DC11EF18EC11FF137EC2BF0C0
:102310008FC1D9FF90C1DAFFDE2A000EDD2261EF06
:1023200011F012003CC0D9FF3DC0DAFFDECFF6FF4E
:10233000DDCFF7FF0800F550250AD8A4A2EF11F071
:10234000A4EF11F009EF14F03CC0D9FF3DC0DAFF53
:10235000DE2A000EDD22000E0101C26F000EC16FE9
:10236000C1C1C5F1C2C1C6F1C369C469000E456EE1
:10237000000E446E07EF12F00101C5813CC0D9FF89
:102380003DC0DAFFDE2A000EDD2207EF12F0010168
:10239000C583BEEF11F00101C585BEEF11F001014B
:1023A000C587BEEF11F00101C589BEEF11F0000E27
:1023B000456E010E446E07EF12F03CC0D9FF3DC0E0
:1023C000DAFFDECFF6FFDDCFF7FF0800F550406EF5
:1023D000416A4150000AD8B4F0EF11F0D7EF11F084
:1023E0004050200AD8B4CFEF11F0030AD8B4D3EF8D
:1023F00011F0080AD8B4CBEF11F0060AD8B4BCEF3C
:1024000011F01D0AD8B4C7EF11F0D7EF11F0445006
:102410004510D8B40EEF12F010EF12F0DDEF11F00E
:102420000101C5A116EF12F018EF12F019EF12F02A
:10243000C5933CC0D9FF3DC0DAFFDECFF6FFDDCF4C
:10244000F7FF0800F5502E0AD8A429EF12F02BEF61
:1024500012F0A8EF12F0000EC46F000EC36F3CC064
:10246000D9FF3DC0DAFFDE2A000EDD223CC0D9FFD5
:102470003DC0DAFFDECFF6FFDDCFF7FF0800F550F5
:102480002A0AD8A446EF12F048EF12F065EF12F0D6
:102490003CC0D9FF3DC0DAFFDE2A000EDD223EC07F
:1024A000D9FF3FC0DAFFDFCF40F0020EDE26DFCFDC
:1024B00041F0000EDD2240C0D9FF41C0DAFFDECF7F
:1024C000C3F1DDCFC4F1A8EF12F03CC0D9FF3DC08D
:1024D000DAFFDECF08F0DDCF09F08AEC23F008C088
:1024E000C3F109C0C4F17CEF12F03CC0D9FF3DC07C
:1024F000DAFFDE2A000EDD22D00E406EFF0E416EA6
:102500003CC0D9FF3DC0DAFFDECFF6FFDDCFF7FFDD
:102510000800F550426E436A405042264150432223
:1025200043500AE10A0E425CD8A099EF12F09CEFEA
:1025300012F0010E9DEF12F0000E466E476A4650F3
:102540004710D8A4A6EF12F0A8EF12F075EF12F022
:102550003CC0D9FF3DC0DAFFDECFF6FFDDCFF7FF8D
:102560000800F550076E086A5FEC30F007504E6EB9
:102570004E50D8B4BEEF12F0C0EF12F0F8EF12F0E8
:102580003CC0D9FF3DC0DAFFDECF40F0DDCF41F0E7
:10259000010E4026000E412240C0F6FF41C0F7FF69
:1025A0000800F550076E086A5FEC30F007504F6E78
:1025B0004F50D8B4DEEF12F0E0EF12F0F8EF12F067
:1025C0003CC0D9FF3DC0DAFFDECF40F0DDCF41F0A7
:1025D000020E4026000E412240C0F6FF41C0F7FF28
:1025E0000800F550076E086A5FEC30F00750506E37
:1025F000660E4E18D8A4FFEF12F001EF13F041EF72
:1026000013F03CC0D9FF3DC0DAFFDECFF6FFDDCFCF
:10261000F7FF0800F5CF51F03CC0D9FF3DC0DAFF0D
:10262000DE2A000EDD223EC0D9FF3FC0DAFFDFCF39
:1026300040F0040EDE26DFCF41F0000EDD2240C068
:10264000D9FF41C0DAFFDECF4AF0DECF4BF0DECF5C
:102650004CF0DECF4DF03AC02EF03BC02FF04AC018
:1026600030F04BC031F04CC032F04DC033F051C0AF
:1026700034F03DEC03F02EC03AF02FC03BF024EFD5
:1026800014F04E0E016E000E026E760E036E060EF4
:10269000046E000E066E020E056ECCEC2AF00150A0
:1026A0000210D8A456EF13F058EF13F0D3EF13F045
:1026B0003CC0D9FF3DC0DAFFDECF40F0DDCF41F0B6
:1026C000010E4026000E412240C0F6FF41C0F7FF38
:1026D0000800F5CF51F0BF0E406EFF0E416E3CC0BA
:1026E000D9FF3DC0DAFFDECFF6FFDDCFF7FF0800F0
:1026F000F550426E436A40504226415043224350B7
:102700000AE11A0E425CD8A088EF13F08BEF13F0A9
:10271000010E8CEF13F0000E486E496A48504910C4
:10272000D8B495EF13F097EF13F0B1EF13F03EC06C
:10273000D9FF3FC0DAFFDFCF40F0040EDE26DFCF47
:1027400041F0000EDD2240C0D9FF41C0DAFFDECFEC
:102750004AF0DECF4BF0DECF4CF0DECF4DF0C9EFCC
:1027600013F03EC0D9FF3FC0DAFFDFCF40F0040EC8
:10277000DE26DFCF41F0000EDD2240C0D9FF41C090
:10278000DAFFDECF4AF0DECF4BF0DECF4CF0DECF0B
:102790004DF0020E3CC0D9FF3DC0DAFFDE26000E30
:1027A000DD222BEF13F03CC0D9FF3DC0DAFFDECFB6
:1027B000F6FFDDCFF7FF0800F550250AD8A4E3EFB8
:1027C00013F0E5EF13F0FCEF13F03CC0D9FF3DC070
:1027D000DAFFDE2A000EDD22000E026E250E016EEB
:1027E0003AC003F03BC004F002EC2CF0000E3B6E4C
:1027F000010E3A6E24EF14F03CC0D9FF3DC0DAFF61
:10280000DE2A000EDD22000E3B6E000E3A6E24EF33
:1028100014F03CC0D9FF3DC0DAFFDECFF6FFDDCFBC
:10282000F7FF0800F550016E026A3AC003F03BC0A2
:1028300004F002EC2CF03CC0D9FF3DC0DAFFDE2AE8
:10284000000EDD22F6EF13F0120001011F51800B84
:10285000286F1F511F252A6F1EAF31EF14F033EF81
:1028600014F034EF14F02A812A51D8B43AEF14F05E
:102870003CEF14F051EF14F02A29D8A442EF14F0E1
:1028800044EF14F04CEF14F0000E1C6F000E1D6F9F
:10289000000E1E6F000E1F6F1E8F000E1F6F59EF70
:1028A00014F0000E1C6F000E1D6F000E1E6F000E48
:1028B0001F6F2351800B296F28512919D8B463EF5A
:1028C00014F065EF14F066EF14F0288D23512325E2
:1028D000296F22AF6EEF14F070EF14F071EF14F067
:1028E00029812951D8B477EF14F079EF14F08EEFE5
:1028F00014F02929D8A47FEF14F081EF14F089EFA8
:1029000014F0000E206F000E216F000E226F000EDB
:10291000236F228F000E236F96EF14F0000E206FAE
:10292000000E216F000E226F000E236F2A51295DC9
:10293000D8B09DEF14F09FEF14F0C6EF14F028AD5F
:10294000A4EF14F0A6EF14F0A8EF14F0800E281BEB
:102950002AC12BF129C12AF12BC129F11CC12BF16C
:1029600020C11CF12BC120F11DC12BF121C11DF192
:102970002BC121F11EC12BF122C11EF12BC122F16D
:102980001FC12BF123C11FF12BC123F1000E2B6FAF
:102990002A5129C124F1256B245F000E255B25BF38
:1029A000DBEF14F0255109E11A0E245DD8A0DBEF0E
:1029B00014F0DDEF14F014EF15F01C511D111E1171
:1029C0001F11D8A4E6EF14F0E9EF14F0010EEAEFBE
:1029D00014F0000E2B6F000E1C6F000E1D6F000E0A
:1029E0001E6F000E1F6F29C12AF11DEF15F02BA1DC
:1029F000FCEF14F0FEEF14F004EF15F0D8902B313B
:102A000001092B6F06EF15F0D8902B331CA10BEFAB
:102A100015F00DEF15F00EEF15F02B8F1F351F334E
:102A20001E331D331C332A2B29512A5DD8A01BEFDE
:102A300015F01DEF15F0F7EF14F028BD22EF15F09B
:102A400024EF15F064EF15F02A51D8A42AEF15F001
:102A50002CEF15F036EF15F0000E1C6F000E1D6FF9
:102A6000000E1E6F000E1F6F85EF16F020511C2701
:102A700021511D2322511E2323511F231FA143EF48
:102A800015F045EF15F0F1EF15F02BA14AEF15F019
:102A90004CEF15F052EF15F0D8902B3101092B6F48
:102AA00054EF15F0D8902B331CA159EF15F05BEFC4
:102AB00015F05CEF15F02B8F1F351F331E331D33C0
:102AC0001C332A2BF1EF15F020511C5D21511D59AB
:102AD00022511E591F51800A246F2351800A245904
:102AE000D8B075EF15F077EF15F0A2EF15F01C5187
:102AF000205D246F1D512159256F1E512259266FCB
:102B00001F512359276FFF0E24251C6FFF0E25210F
:102B10001D6FFF0E26211E6FFF0E27211F6F800ED7
:102B2000281B2B6D2B51D8A498EF15F09AEF15F0B8
:102B3000AAEF15F0010E1C27000E1D231E231F23D4
:102B4000AAEF15F020511C5F21511D5B22511E5B25
:102B500023511F5B1C511D111E111F11D8A4B3EF6F
:102B600015F0B5EF15F0EAEF15F02B51D8A4BBEF37
:102B700015F0BDEF15F0EAEF15F0000E1C6F000E1A
:102B80001D6F000E1E6F000E1F6F85EF16F0D890A0
:102B90001C371D371E371F372BAFD1EF15F0D3EF82
:102BA00015F0D4EF15F01C812BA1D9EF15F0DBEF58
:102BB00015F0DFEF15F0D8802B37E1EF15F0D89046
:102BC0002B372A51D8B4E7EF15F0E9EF15F0EAEF0B
:102BD00015F02A071EAFEFEF15F0F1EF15F0C7EF74
:102BE00015F0000E296F2BAFF8EF15F0FAEF15F086
:102BF00012EF16F02BC124F17F0E2417D8B403EF87
:102C000016F005EF16F009EF16F0010E296F12EF1E
:102C100016F01CA10EEF16F010EF16F012EF16F0E2
:102C200005EF16F02951D8B418EF16F01AEF16F088
:102C300045EF16F0010E1C27000E1D231E231F2337
:102C40001FA125EF16F027EF16F045EF16F01CC177
:102C500024F11DC125F11EC126F11FC127F1273521
:102C6000273326332533243324C11CF125C11DF11C
:102C700026C11EF127C11FF12A29D8B442EF16F050
:102C800044EF16F045EF16F02A2B2A29D8B44BEF63
:102C900016F04DEF16F055EF16F02A51D8A453EF69
:102CA00016F055EF16F067EF16F0000E1C6F000ED1
:102CB0001D6F000E1E6F000E1F6F2A51D8A463EF08
:102CC00016F065EF16F067EF16F0000E286F2AA1D8
:102CD0006CEF16F06EEF16F071EF16F01E8F72EFBC
:102CE00016F01E9FD8902A311F6F28AF7AEF16F08A
:102CF0007CEF16F07DEF16F01F8F1CC11CF11DC17B
:102D00001DF11EC11EF11FC11FF112000450800BE6
:102D10000D6E045004240F6E03AE91EF16F093EF86
:102D200016F094EF16F00F800F50D8B49AEF16F00B
:102D30009CEF16F0B1EF16F00F28D8A4A2EF16F012
:102D4000A4EF16F0ACEF16F0000E016E000E026E4E
:102D5000000E036E000E046E038E000E046EB9EFBB
:102D600016F0000E016E000E026E000E036E000ED5
:102D7000046E0850800B0E6E0D500E18D8B4C3EFC1
:102D800016F0C5EF16F0C6EF16F00D8C08500824AB
:102D90000E6E07AECEEF16F0D0EF16F0D1EF16F0B4
:102DA0000E800E50D8B4D7EF16F0D9EF16F0EEEF34
:102DB00016F00E28D8A4DFEF16F0E1EF16F0E9EFD9
:102DC00016F0000E056E000E066E000E076E000E69
:102DD000086E078E000E086EF6EF16F0000E056EF8
:102DE000000E066E000E076E000E086E0F500E5C91
:102DF000D8B0FDEF16F0FFEF16F026EF17F00DAC90
:102E000004EF17F006EF17F008EF17F0800E0D1A19
:102E10000FC010F00EC00FF010C00EF001C010F087
:102E200005C001F010C005F002C010F006C002F0AD
:102E300010C006F003C010F007C003F010C007F088
:102E400004C010F008C004F010C008F0000E106EAE
:102E50000F500EC009F00A6A095E000E0A5A0ABE37
:102E60003BEF17F00A5009E11A0E095CD8A03BEFBE
:102E700017F03DEF17F074EF17F001500210031038
:102E80000410D8A446EF17F049EF17F0010E4AEFEF
:102E900017F0000E106E000E016E000E026E000E96
:102EA000036E000E046E0EC00FF07DEF17F010A041
:102EB0005CEF17F05EEF17F064EF17F0D89010306A
:102EC0000109106E66EF17F0D890103201A06BEF79
:102ED00017F06DEF17F06EEF17F0108E0434043218
:102EE0000332023201320F2A0E500F5CD8A07BEF62
:102EF00017F07DEF17F057EF17F00DBC82EF17F0CA
:102F000084EF17F0C4EF17F00F50D8A48AEF17F032
:102F10008CEF17F096EF17F0000E016E000E026EA8
:102F2000000E036E000E046EE5EF18F0055001264A
:102F300006500222075003220850042204A0A3EFE7
:102F400017F0A5EF17F051EF18F010A0AAEF17F047
:102F5000ACEF17F0B2EF17F0D89010300109106EF7
:102F6000B4EF17F0D890103201A0B9EF17F0BBEF13
:102F700017F0BCEF17F0108E043404320332023223
:102F800001320F2A51EF18F00550015C065002582B
:102F9000075003580450800A096E0850800A0958E7
:102FA000D8B0D5EF17F0D7EF17F002EF18F00150B7
:102FB000055C096E025006580A6E035007580B6EE6
:102FC000045008580C6EFF0E0924016EFF0E0A20F3
:102FD000026EFF0E0B20036EFF0E0C20046E800E9F
:102FE0000D1A106C1050D8A4F8EF17F0FAEF17F084
:102FF0000AEF18F0010E0126000E0222032204221D
:103000000AEF18F00550015E0650025A0750035AA5
:103010000850045A0150021003100410D8A413EFF2
:1030200018F015EF18F04AEF18F01050D8A41BEF65
:1030300018F01DEF18F04AEF18F0000E016E000EA8
:10304000026E000E036E000E046EE5EF18F0D890CD
:10305000013602360336043610AE31EF18F033EF86
:1030600018F034EF18F0018010A039EF18F03BEFA2
:1030700018F03FEF18F0D880103641EF18F0D890D4
:1030800010360F50D8B447EF18F049EF18F04AEF58
:1030900018F00F0603AE4FEF18F051EF18F027EFBE
:1030A00018F0000E0E6E10AE58EF18F05AEF18F030
:1030B00072EF18F010C009F07F0E0916D8B463EF54
:1030C00018F065EF18F069EF18F0010E0E6E72EF50
:1030D00018F001A06EEF18F070EF18F072EF18F012
:1030E00065EF18F00E50D8B478EF18F07AEF18F0BA
:1030F000A5EF18F0010E0126000E02220322042281
:1031000004A085EF18F087EF18F0A5EF18F001C0C4
:1031100009F002C00AF003C00BF004C00CF00C343C
:103120000C320B320A32093209C001F00AC002F037
:103130000BC003F00CC004F00F28D8B4A2EF18F0B5
:10314000A4EF18F0A5EF18F00F2A0F28D8B4ABEFB2
:1031500018F0ADEF18F0B5EF18F00F50D8A4B3EF9A
:1031600018F0B5EF18F0C7EF18F0000E016E000E62
:10317000026E000E036E000E046E0F50D8A4C3EF53
:1031800018F0C5EF18F0C7EF18F0000E0D6E0FA085
:10319000CCEF18F0CEEF18F0D1EF18F0038ED2EF8D
:1031A00018F0039ED8900F30046E0DAEDAEF18F0D1
:1031B000DCEF18F0DDEF18F0048E01C001F002C062
:1031C00002F003C003F004C004F0120001011F511B
:1031D000800B286F1F511F252E6F1EAFF2EF18F0C6
:1031E000F4EF18F0F5EF18F02E812E51D8B4FBEF64
:1031F00018F0FDEF18F010EF19F02E29D8A403EF06
:1032000019F005EF19F00DEF19F0000E1C6F000E0C
:103210001D6F000E1E6F000E1F6F1E8F18EF19F02E
:10322000000E1C6F000E1D6F000E1E6F000E1F6F34
:103230002351800B281B235123252D6F22AF23EF11
:1032400019F025EF19F026EF19F02D812D51D8B482
:103250002CEF19F02EEF19F041EF19F02D29D8A419
:1032600034EF19F036EF19F03EEF19F0000E206F31
:10327000000E216F000E226F000E236F228F49EF88
:1032800019F0000E206F000E216F000E226F000E4D
:10329000236F2D51D8B44FEF19F051EF19F059EFBA
:1032A00019F02E51D8A457EF19F059EF19F063EF28
:1032B00019F0000E1C6F000E1D6F000E1E6F000E29
:1032C0001F6FFBEF1AF022511C03F3CF33F1F4CF41
:1032D00034F13351296F2A6B2B6B2C6B34512F6FC8
:1032E000306B316B326B21511D03F3CF33F1F4CFCF
:1032F00034F133512927000E2A232B232C23345158
:103300002F27000E30233123322320511E03F3CF09
:1033100033F1F4CF34F133512927000E2A232B2324
:103320002C2334512F27000E3023312332232BC17D
:103330002CF12AC12BF129C12AF1296B20511D033F
:10334000F3CF33F1F4CF34F13351292734512A2309
:10335000000E2B23000E2C2321511C03F3CF33F13D
:10336000F4CF34F13351292734512A23000E2B2373
:10337000000E2C232BC12CF12AC12BF129C12AF1DB
:10338000296B20511C03F3CF33F1F4CF34F13351C7
:10339000292734512A23000E2B23000E2C232251DF
:1033A0001D03F3CF33F1F4CF34F133512F273451D0
:1033B0003023000E3123000E322321511E03F3CFA0
:1033C00033F1F4CF34F133512F2734513023000E31
:1033D0003123000E322322511E03F3CF33F1F4CFF9
:1033E00034F13351246F3451256F266B276B26C17E
:1033F00027F125C126F124C125F1246B24512F2763
:1034000025513023265131232751322329C124F15C
:103410002AC125F12BC126F12CC127F1190E16EF77
:103420001AF0D8902733263325332433E82E11EFB2
:103430001AF024512F2725513023265131232751AB
:1034400032232BC12CF12AC12BF129C12AF1296B7E
:103450002D512EC124F1256B2427000E2523820E29
:103460002425336FFF0E2521346F4CEF1AF0D890CE
:103470002F373037313732372CAF41EF1AF043EF67
:103480001AF044EF1AF02F81D89029372A372B37BA
:103490002C373307D8A0340731AF51EF1AF053EF70
:1034A0001AF037EF1AF0000E2D6F2CAF5AEF1AF00A
:1034B0005CEF1AF080EF1AF0FF0E2915246FFF0E53
:1034C0002A15256FFF0E2B15266F7F0E2C15276FE3
:1034D0002451251126112711D8B471EF1AF073EF7A
:1034E0001AF077EF1AF0010E2D6F80EF1AF02FA16E
:1034F0007CEF1AF07EEF1AF080EF1AF073EF1AF0FB
:103500002D51D8B486EF1AF088EF1AF0ACEF1AF00C
:10351000010E2F27000E30233123322332A193EFE7
:103520001AF095EF1AF0ACEF1AF02FC124F130C168
:1035300025F131C126F132C127F127352733263352
:103540002533243324C12FF125C130F126C131F1B7
:1035500027C132F1334B342B34BFB7EF1AF034515B
:1035600008E13329D8A0B7EF1AF0B9EF1AF0C3EF8A
:103570001AF0000E2F6F000E306F800E316F7F0E2D
:10358000326FF1EF1AF034BFD0EF1AF0345106E188
:103590003305D8B0CEEF1AF0D0EF1AF0DCEF1AF006
:1035A000000E2F6F000E306F000E316F000E326F65
:1035B000000E286FF1EF1AF033C12EF1FF0E2F1716
:1035C000FF0E30177F0E3117000E32172EA1EBEFD2
:1035D0001AF0EDEF1AF0EEEF1AF0318FD8902E318D
:1035E000326F285132132FC11CF130C11DF131C18E
:1035F0001EF132C11FF112000450800B0D6E0450F9
:103600000424136E03AE07EF1BF009EF1BF00AEF63
:103610001BF013801350D8B410EF1BF012EF1BF007
:1036200025EF1BF01328D8A418EF1BF01AEF1BF09E
:1036300022EF1BF0000E016E000E026E000E036EF4
:10364000000E046E038E2DEF1BF0000E016E000EB7
:10365000026E000E036E000E046E0850800B0D1AF1
:1036600008500824126E07AE38EF1BF03AEF1BF03B
:103670003BEF1BF012801250D8B441EF1BF043EF28
:103680001BF056EF1BF01228D8A449EF1BF04BEFAC
:103690001BF053EF1BF0000E056E000E066E000EC1
:1036A000076E000E086E078E5EEF1BF0000E056EB3
:1036B000000E066E000E076E000E086E1250D8B493
:1036C00064EF1BF066EF1BF06EEF1BF01350D8A4F5
:1036D0006CEF1BF06EEF1BF078EF1BF0000E016E2D
:1036E000000E026E000E036E000E046E10EF1DF051
:1036F00007500102F3CF18F0F4CF19F018500E6EF6
:103700000F6A106A116A1950146E156A166A176AE0
:1037100006500202F3CF18F0F4CF19F018500E261D
:10372000000E0F221022112219501426000E15220D
:103730001622172205500302F3CF18F0F4CF19F028
:1037400018500E26000E0F22102211221950142696
:10375000000E15221622172210C011F00FC010F013
:103760000EC00FF00E6A05500202F3CF18F0F4CF2E
:1037700019F018500E2619500F22000E1022000EBC
:10378000112206500102F3CF18F0F4CF19F01850AF
:103790000E2619500F22000E1022000E112210C00A
:1037A00011F00FC010F00EC00FF00E6A05500102AC
:1037B000F3CF18F0F4CF19F018500E2619500F223D
:1037C000000E1022000E112207500202F3CF18F053
:1037D000F4CF19F01850142619501522000E162295
:1037E000000E172206500302F3CF18F0F4CF19F0A1
:1037F0001850142619501522000E1622000E1722FA
:1038000007500302F3CF18F0F4CF19F01850096EE7
:1038100019500A6E0B6A0C6A0BC00CF00AC00BF050
:1038200009C00AF0096A095014260A5015220B50E3
:1038300016220C5017220EC009F00FC00AF010C05B
:103840000BF011C00CF0190E2BEF1CF0D8900C32BD
:103850000B320A320932E82E26EF1CF009501426EA
:103860000A5015220B5016220C50172210C011F0CE
:103870000FC010F00EC00FF00E6A125013C009F006
:103880000A6A0926000E0A22820E0924186EFF0E0B
:103890000A20196E61EF1CF0D890143615361636D2
:1038A000173611AE56EF1CF058EF1CF059EF1CF014
:1038B0001480D8900E360F36103611361806D8A060
:1038C000190616AE66EF1CF068EF1CF04CEF1CF00A
:1038D000000E126E11AE6FEF1CF071EF1CF095EF41
:1038E0001CF0FF0E0E14096EFF0E0F140A6EFF0E71
:1038F00010140B6E7F0E11140C6E09500A100B1071
:103900000C10D8B486EF1CF088EF1CF08CEF1CF084
:10391000010E126E95EF1CF014A091EF1CF093EFC6
:103920001CF095EF1CF088EF1CF01250D8B49BEF00
:103930001CF09DEF1CF0C1EF1CF0010E1426000ED0
:1039400015221622172217A0A8EF1CF0AAEF1CF0D0
:10395000C1EF1CF014C009F015C00AF016C00BF03E
:1039600017C00CF00C340C320B320A32093209C089
:1039700014F00AC015F00BC016F00CC017F0184A6E
:10398000192A19BECCEF1CF0195008E11828D8A04C
:10399000CCEF1CF0CEEF1CF0D8EF1CF0000E146E34
:1039A000000E156E800E166E7F0E176E06EF1DF060
:1039B00019BEE5EF1CF0195006E11804D8B0E3EF8A
:1039C0001CF0E5EF1CF0F1EF1CF0000E146E000E81
:1039D000156E000E166E000E176E000E0D6E06EFC1
:1039E0001DF018C013F0FF0E1416FF0E15167F0EF3
:1039F0001616000E171613A000EF1DF002EF1DF0B3
:103A000003EF1DF0168ED8901330176E0D5017125D
:103A100014C001F015C002F016C003F017C004F086
:103A2000120001011F51800B2C6F1F511F25336F96
:103A30001EAF1DEF1DF01FEF1DF020EF1DF03381B5
:103A40003351D8B426EF1DF028EF1DF03DEF1DF0E7
:103A50003329D8A42EEF1DF030EF1DF038EF1DF004
:103A6000000E1C6F000E1D6F000E1E6F000E1F6FEC
:103A70001E8F000E1F6F45EF1DF0000E1C6F000E15
:103A80001D6F000E1E6F000E1F6F2351800B2C1B2D
:103A900023512325346F22AF50EF1DF052EF1DF05C
:103AA00053EF1DF034813451D8B459EF1DF05BEF62
:103AB0001DF070EF1DF03429D8A461EF1DF063EF05
:103AC0001DF06BEF1DF0000E206F000E216F000E39
:103AD000226F000E236F228F000E236F78EF1DF0F0
:103AE000000E206F000E216F000E226F000E236F5C
:103AF0002051211122112311D8A481EF1DF083EF51
:103B00001DF09BEF1DF0000E1C6F000E1D6F000ED0
:103B10001E6F000E1F6F800E1E137F0E1F132C5181
:103B20001F131CC11CF11DC11DF11EC11EF11FC1BF
:103B30001FF1DEEF1EF03351D8A4A1EF1DF0A3EF6B
:103B40001DF0ADEF1DF0000E1C6F000E1D6F000E7E
:103B50001E6F000E1F6FDEEF1EF0345133C124F1D3
:103B6000256B245F000E255B7F0E24252D6F000E34
:103B700025212E6F1CC128F11DC129F11EC12AF17A
:103B80001FC12BF1000E1C6F000E1D6F000E1E6F6B
:103B9000000E1F6F000E2F6F000E306F000E316F82
:103BA000000E326F000E346F0EEF1EF03451D8B499
:103BB000DCEF1DF0DEEF1DF0F5EF1DF0D89028379B
:103BC00029372A372B37D8901C371D371E371F3718
:103BD00032AFEDEF1DF0EFEF1DF0F0EF1DF01C81A7
:103BE000D8902F373037313732372051285D215167
:103BF000295922512A5923512B59D8A002EF1EF0DE
:103C000004EF1EF00DEF1EF0328D2051285F215180
:103C1000295B22512A5B23512B5B342B190E34650F
:103C200014EF1EF016EF1EF0D6EF1DF028512911EB
:103C30002A112B11D8B41FEF1EF021EF1EF039EF1F
:103C40001EF02F8139EF1EF0D8901C371D371E371C
:103C50001F3732AF2EEF1EF030EF1EF031EF1EF0A7
:103C60001C81D8902F373037313732372D07D8A005
:103C70002E071EAF3EEF1EF040EF1EF024EF1EF0A9
:103C8000000E346F32AF47EF1EF049EF1EF06DEFBC
:103C90001EF0FF0E2F15246FFF0E3015256FFF0E3F
:103CA0003115266F7F0E3215276F245125112611ED
:103CB0002711D8B45EEF1EF060EF1EF064EF1EF027
:103CC000010E346F6DEF1EF01CA169EF1EF06BEF5B
:103CD0001EF06DEF1EF060EF1EF03451D8B473EF9C
:103CE0001EF075EF1EF099EF1EF0010E1C27000E5E
:103CF0001D231E231F231FA180EF1EF082EF1EF045
:103D000099EF1EF01CC124F11DC125F11EC126F141
:103D10001FC127F12735273326332533243324C108
:103D20001CF125C11DF126C11EF127C11FF12D4B2C
:103D30002E2B2EBFA4EF1EF02E5108E12D29D8A066
:103D4000A4EF1EF0A6EF1EF0B1EF1EF0000E2E6FD6
:103D50002D69000E1C6F000E1D6F000E1E6F000EF1
:103D60001F6F2EBFBEEF1EF02E5106E12D05D8B0FD
:103D7000BCEF1EF0BEEF1EF0CCEF1EF0000E2E6F5B
:103D8000000E2D6F000E1C6F000E1D6F000E1E6FBB
:103D9000000E1F6F000E2C6F2DC133F133A1D3EF36
:103DA0001EF0D5EF1EF0D8EF1EF01E8FD9EF1EF0DB
:103DB0001E9FD89033311F6F8FEF1DF012000450FB
:103DC000800B116E04500424186E03AEEAEF1EF04F
:103DD000ECEF1EF0EDEF1EF018801850D8B4F3EFA2
:103DE0001EF0F5EF1EF00AEF1FF01828D8A4FBEF25
:103DF0001EF0FDEF1EF005EF1FF0000E016E000E2D
:103E0000026E000E036E000E046E038E000E046E32
:103E100012EF1FF0000E016E000E026E000E036E18
:103E2000000E046E0850800B111A08500824196EF9
:103E300007AE1DEF1FF01FEF1FF020EF1FF01980DE
:103E40001950D8B426EF1FF028EF1FF03DEF1FF0F8
:103E50001928D8A42EEF1FF030EF1FF038EF1FF015
:103E6000000E056E000E066E000E076E000E086E48
:103E7000078E000E086E45EF1FF0000E056E000E57
:103E8000066E000E076E000E086E05500610071035
:103E90000810D8A44EEF1FF050EF1FF068EF1FF08E
:103EA000000E016E000E026E000E036E000E046E18
:103EB000800E03127F0E04121150041201C001F093
:103EC00002C002F003C003F004C004F0ABEF20F026
:103ED0001850D8A46EEF1FF070EF1FF07AEF1FF0AC
:103EE000000E016E000E026E000E036E000E046ED8
:103EF000ABEF20F0195018C009F00A6A095E000EF5
:103F00000A5A7F0E0924126E000E0A20136E01C099
:103F10000DF002C00EF003C00FF004C010F0000E50
:103F2000016E000E026E000E036E000E046E000E97
:103F3000146E000E156E000E166E000E176E000E3B
:103F4000196EDBEF1FF01950D8B4A9EF1FF0ABEFDB
:103F50001FF0C2EF1FF0D8900D360E360F36103618
:103F6000D890013602360336043617AEBAEF1FF08A
:103F7000BCEF1FF0BDEF1FF00180D890143615364E
:103F80001636173605500D5C06500E5807500F5860
:103F900008501058D8A0CFEF1FF0D1EF1FF0DAEF84
:103FA0001FF0178C05500D5E06500E5A07500F5A21
:103FB0000850105A192A190E1964E1EF1FF0E3EFA7
:103FC0001FF0A3EF1FF00D500E100F101010D8B4FB
:103FD000ECEF1FF0EEEF1FF006EF20F0148006EF7D
:103FE00020F0D890013602360336043617AEFBEFC8
:103FF0001FF0FDEF1FF0FEEF1FF00180D890143688
:104000001536163617361206D8A0130603AE0BEF78
:1040100020F00DEF20F0F1EF1FF0000E196E17AE3B
:1040200014EF20F016EF20F03AEF20F0FF0E1414FA
:10403000096EFF0E15140A6EFF0E16140B6E7F0E1E
:1040400017140C6E09500A100B100C10D8B42BEF7B
:1040500020F02DEF20F031EF20F0010E196E3AEF35
:1040600020F001A036EF20F038EF20F03AEF20F0FA
:104070002DEF20F01950D8B440EF20F042EF20F09F
:1040800066EF20F0010E0126000E02220322042218
:1040900004A04DEF20F04FEF20F066EF20F001C0BC
:1040A00009F002C00AF003C00BF004C00CF00C349D
:1040B0000C320B320A32093209C001F00AC002F098
:1040C0000BC003F00CC004F0124A132A13BE71EFA8
:1040D00020F0135008E11228D8A071EF20F073EF00
:1040E00020F07EEF20F0000E136E1268000E016EBD
:1040F000000E026E000E036E000E046E13BE8BEFF8
:1041000020F0135006E11204D8B089EF20F08BEFB5
:1041100020F099EF20F0000E136E000E126E000ECC
:10412000016E000E026E000E036E000E046E000E95
:10413000116E12C018F018A0A0EF20F0A2EF20F02E
:10414000A5EF20F0038EA6EF20F0039ED890183044
:10415000046E5CEF1FF01200B7C145F1B8C146F123
:10416000B9C147F1BAC148F135C145F136C146F18F
:1041700037C147F138C148F1810E0101396FFF0E97
:104180003A6F45C13BF146C13CF147C13DF148C1E1
:104190003EF1180ED1EF20F0D8903E333D333C3342
:1041A0003B33E82ECCEF20F03B513925436F000E16
:1041B0003A21446F44BFE6EF20F0445109E1170E65
:1041C000435DD8A0E6EF20F0E8EF20F0F2EF20F01A
:1041D00035C135F136C136F137C137F138C138F163
:1041E000B6EF21F044BFF7EF20F0F9EF20F06AEFCF
:1041F00021F043C139F1FF0E3A6FFF0E3B6F7F0E86
:104200003C6F000E3D6F396708EF21F010EF21F091
:104210003D353D333C333B333A33392F03EF21F007
:104220003AC13FF13BC140F13CC141F13DC142F1D6
:1042300001013F514515396F405146153A6F4151C3
:1042400047153B6F425148153C6F39513A113B11AC
:104250003C11D8A42EEF21F030EF21F032EF21F005
:10426000E8EF20F045C139F146C13AF147C13BF1D1
:1042700048C13CF1200E42EF21F0D8903C333B3353
:104280003A333933E82E3DEF21F039513A113B11E1
:104290003C11D8B44EEF21F050EF21F058EF21F04F
:1042A0003F5145274051462341514723425148231E
:1042B0003F1D396F401D3A6F411D3B6F421D3C6FE2
:1042C000395145173A5146173B5147173C5148174A
:1042D000AEEF21F045C139F146C13AF147C13BF19A
:1042E00048C13CF1200E7AEF21F0D8903C333B33AB
:1042F0003A333933E82E75EF21F039513A113B1139
:104300003C11D8A486EF21F088EF21F092EF21F044
:10431000000E456F000E466F000E476F000E486F8F
:10432000AEEF21F0D8904535396F46353A6F4735B5
:104330003B6F48353C6F39513A113B113C11D8B4B1
:10434000A4EF21F0A6EF21F0AEEF21F0000E456FB3
:10435000000E466F800E476FBF0E486F45C135F1A6
:1043600046C136F147C137F148C138F11200B7C133
:104370002AF0B8C12BF0B9C12CF0BAC12DF01AC087
:104380002AF01BC02BF01CC02CF01DC02DF0810E9C
:104390001E6EFF0E1F6E2AC020F02BC021F02CC015
:1043A00022F02DC023F0180EDBEF21F0D89023323D
:1043B000223221322032E82ED6EF21F020501E2466
:1043C000286E000E1F20296E29BEF0EF21F0295023
:1043D00009E1170E285CD8A0F0EF21F0F2EF21F0F0
:1043E000FCEF21F01AC01AF01BC01BF01CC01CF01F
:1043F0001DC01DF0BFEF22F029BE01EF22F003EF38
:1044000022F073EF22F028C01EF0FF0E1F6EFF0E89
:10441000206E7F0E216E000E226E1E6612EF22F0BD
:104420001AEF22F022342232213220321F321E2E85
:104430000DEF22F01FC024F020C025F021C026F08F
:1044400022C027F024502A141E6E25502B141F6EF4
:1044500026502C14206E27502D14216E1E501F1034
:1044600020102110D8A437EF22F039EF22F03BEFD3
:1044700022F0F2EF21F02AC01EF02BC01FF02CC05A
:1044800020F02DC021F0200E4BEF22F0D8902132E9
:1044900020321F321E32E82E46EF22F01E501F102F
:1044A00020102110D8B457EF22F059EF22F061EF1D
:1044B00022F024502A2625502B2226502C22275029
:1044C0002D22241C1E6E251C1F6E261C206E271CF0
:1044D000216E1E502A161F502B1620502C162150CC
:1044E0002D16B7EF22F02AC01EF02BC01FF02CC0F3
:1044F00020F02DC021F0200E83EF22F0D890213241
:1045000020321F321E32E82E7EEF22F01E501F1086
:1045100020102110D8A48FEF22F091EF22F09BEF12
:1045200022F0000E2A6E000E2B6E000E2C6E000E76
:104530002D6EB7EF22F0D8902A341E6E2B341F6EEA
:104540002C34206E2D34216E1E501F10201021108F
:10455000D8B4ADEF22F0AFEF22F0B7EF22F0000EAB
:104560002A6E000E2B6E800E2C6EBF0E2D6E2AC092
:104570001AF02BC01BF02CC01CF02DC01DF0120037
:10458000000E0101316F000E306F000E2A6F000E19
:10459000296FCDEF22F0234B242B010E2F6F23C167
:1045A000F6FF24C1F7FF0800F550200AD8B4DBEF6E
:1045B00022F0DDEF22F0FAEF22F0F70E256FFF0E6A
:1045C000266F23C1F6FF24C1F7FF0800F550276FBF
:1045D000286B2551272726512823285109E1050E4C
:1045E000275DD8A0F6EF22F0F8EF22F0FAEF22F0E4
:1045F000000E2F6F2FC12BF12C6B2B512C11D8A437
:1046000004EF23F006EF23F0CBEF22F010EF23F0BE
:10461000000E2A6F010E296F234B242B46EF23F047
:1046200023C1F6FF24C1F7FF0800F550256F266B64
:104630002651000AD8B41FEF23F046EF23F025518E
:104640002B0AD8B40CEF23F0060AD8B408EF23F0F5
:1046500046EF23F030C11CF131C11DF1000E1F6F78
:104660000A0E1E6F1CEC34F023C1F6FF24C1F7FFC5
:104670000800F55001011C5F000E1D5B300E1C256B
:10468000306F000E1D21316F0CEF23F0D00E256F1F
:10469000FF0E266F23C1F6FF24C1F7FF0800F55077
:1046A000276F286B255127272651282328510AE1F7
:1046B0000A0E275DD8A05FEF23F062EF23F0010E12
:1046C00063EF23F0000E2D6F2E6B2D512E11D8A409
:1046D0006CEF23F06EEF23F02AEF23F029512A111B
:1046E000D8A475EF23F077EF23F085EF23F030C1E6
:1046F00025F131C126F1251F261F254B262B25C16B
:1047000023F126C124F189EF23F030C123F131C117
:1047100024F11200000E166E000E156E000E0F6EC4
:10472000000E0E6E96EF23F0084A092A010E146E51
:1047300008C0F6FF09C0F7FF0800F550200AD8B4FA
:10474000A4EF23F0A6EF23F0C3EF23F0F70E0A6ED9
:10475000FF0E0B6E08C0F6FF09C0F7FF0800F5500A
:104760000C6E0D6A0A500C260B500D220D5009E1FB
:10477000050E0C5CD8A0BFEF23F0C1EF23F0C3EF10
:1047800023F0000E146E14C010F0116A10501110B6
:10479000D8A4CDEF23F0CFEF23F094EF23F0D9EF9F
:1047A00023F0000E0F6E010E0E6E084A092A0EEF5E
:1047B00024F008C0F6FF09C0F7FF0800F5500A6EA4
:1047C0000B6A0B50000AD8B4E8EF23F00EEF24F088
:1047D0000A502B0AD8B4D5EF23F0060AD8B4D1EF8B
:1047E00023F00EEF24F015C001F016C002F0000E09
:1047F000046E0A0E036E43EC34F008C0F6FF09C0E5
:10480000F7FF0800F550015E000E025A300E012439
:10481000156E000E0220166ED5EF23F0D00E0A6E34
:10482000FF0E0B6E08C0F6FF09C0F7FF0800F55039
:104830000C6E0D6A0A500C260B500D220D500AE129
:104840000A0E0C5CD8A027EF24F02AEF24F0010E0A
:104850002BEF24F0000E126E136A12501310D8A41E
:1048600034EF24F036EF24F0F3EF23F00E500F1066
:10487000D8A43DEF24F03FEF24F04DEF24F015C015
:104880000AF016C00BF00A1E0B1E0A4A0B2A0AC0B9
:1048900008F00BC009F051EF24F015C008F016C065
:1048A00009F01200E1CFAAF0E2CFABF0D9CFACF023
:1048B000DACFADF0F3CFAEF0F4CFAFF0F6CFB0F08B
:1048C000F7CFB1F0F8CFB2F0F5CFB3F0F2A26BEFC3
:1048D00024F06DEF24F088EF24F0F2A872EF24F0BA
:1048E00074EF24F088EF24F0F2BA79EF24F07BEF34
:1048F00024F07FEF24F0F294F28A80EF24F0F29A11
:1049000081A085EF24F087EF24F080EF24F0F2926D
:10491000F2AA8DEF24F08FEF24F0CAEF24F0F2A476
:1049200094EF24F096EF24F0CAEF24F0F294C5C07F
:1049300001F0C6C002F0C7C003F0C8C004F0BD0E4D
:10494000056E370E066E860E076E3C0E086E86EC00
:1049500016F001C0C5F002C0C6F003C0C7F004C025
:10496000C8F0B40E0001986F000E996F250E9A6F73
:10497000060E9B6FC5C09CF0C6C09DF0C7C09EF0E0
:10498000C8C09FF068EC31F0B40E0A6E000E0B6EDA
:1049900074EC28F0B3C0F5FFB2C0F8FFB1C0F7FF68
:1049A000B0C0F6FFAFC0F4FFAEC0F3FFADC0DAFF9A
:1049B000ACC0D9FFABC0E2FFAAC0E1FF5A92110020
:1049C00079EC34F025C11CF126C11DF116EC31F053
:1049D0001CC129F11DC12AF1000E01012E6F000E2C
:1049E0002D6F1EEF25F02EBFFFEF24F02E5109E1B1
:1049F000080E2D5DD8A0FFEF24F001EF25F003EFA6
:104A000025F02DEF25F02D512525276F2E5126213C
:104A1000286F27C1F6FF28C1F7FFF86A050EF76473
:104A200003D00800F55005D0F6CFE1FFF7CFE2FF45
:104A3000E750C2EC34F001012D4B2E2B29512D5D96
:104A40002E51800A276F2A51800A2759D8A02BEFB0
:104A500025F02DEF25F0F3EF24F0000E236F010E6B
:104A6000E1EC31F0000E01012C6F080E2B6F54EFBA
:104A700025F02B512525276F2C512621286F27C182
:104A8000F6FF28C1F7FFF86A050EF76403D00800A7
:104A9000F55005D0F6CFE1FFF7CFE2FFE750C2ECCB
:104AA00034F001012B4B2C2B29512B5D2C51800A0A
:104AB000276F2A51800A2759D8A061EF25F063EFAC
:104AC00025F039EF25F0120001011E351F35256F45
:104AD0002551D8A46EEF25F070EF25F07AEF25F080
:104AE000000E1C6F000E1D6F000E1E6F000E1F6F5C
:104AF000E7EF25F01CC120F11DC121F11EC122F1FB
:104B00001FC123F1200E8AEF25F0D89023332233E2
:104B100021332033E82E85EF25F02051246F1E8F9E
:104B2000FF0E1C17FF0E1D17FF0E1E17000E1F177E
:104B3000960E255F25BFA1EF25F09FEF25F0B7EF7B
:104B400025F02551800A970FD8B0A9EF25F0ABEFDB
:104B500025F0ADEF25F070EF25F0D8901F331E3310
:104B60001D331C33253FADEF25F0CFEF25F01F0E91
:104B70002565BDEF25F0BFEF25F0C7EF25F070EFFD
:104B800025F0D8901C371D371E371F3725072551B4
:104B9000D8A4CDEF25F0CFEF25F0C1EF25F02451BB
:104BA000D8B4D5EF25F0D7EF25F0DFEF25F01F1FA4
:104BB0001E1F1D1F1C6D000E1D231E231F231CC145
:104BC0001CF11DC11DF11EC11EF11FC11FF11200FC
:104BD00089EC34F009C100F10AC101F13FEC31F078
:104BE00000C10DF101C10EF1000E0101126F000EA6
:104BF000116F26EF26F012BF07EF26F0125109E1E0
:104C0000080E115DD8A007EF26F009EF26F00BEF94
:104C100026F035EF26F0115109250B6F12510A21AC
:104C20000C6F0BC1F6FF0CC1F7FFF86A050EF764B5
:104C300003D00800F55005D0F6CFE1FFF7CFE2FF33
:104C4000E750D2EC34F00101114B122B0D51115DE4
:104C50001251800A0B6F0E51800A0B59D8A033EF06
:104C600026F035EF26F0FBEF25F0000E076F010E62
:104C700007EC32F0000E0101106F080E0F6F5CEFB1
:104C800026F00F5109250B6F10510A210C6F0BC133
:104C9000F6FF0CC1F7FFF86A050EF76403D00800B1
:104CA000F55005D0F6CFE1FFF7CFE2FFE750D2ECA9
:104CB00034F001010F4B102B0D510F5D1051800A84
:104CC0000B6F0E51800A0B59D8A069EF26F06BEFDD
:104CD00026F041EF26F01200000E010135153D6F60
:104CE000000E36153E6F800E37153F6F7F0E38155C
:104CF000406F3D513E113F114011D8A482EF26F084
:104D000084EF26F08CEF26F0000E356F000E366F24
:104D1000000E376F000E386F000E39153D6F000E14
:104D20003A153E6F800E3B153F6F7F0E3C15406F6E
:104D30003D513E113F114011D8A4A1EF26F0A3EF41
:104D400026F0ABEF26F0000E396F000E3A6F000E22
:104D50003B6F000E3C6F38AFB0EF26F0B2EF26F09D
:104D6000BBEF26F0356D361FD8B0362B371FD8B0C5
:104D7000372B800E38573CAFC0EF26F0C2EF26F03D
:104D8000CBEF26F0396D3A1FD8B03A2B3B1FD8B085
:104D90003B2B800E3C57000E351B000E361B000EC1
:104DA000371B800E381B000E391B000E3A1B000EFD
:104DB0003B1B800E3C1B3951355D3A5136593B51F6
:104DC00037593C513859D8B0E8EF26F0EAEF26F0D1
:104DD000EDEF26F0D890EEEF26F0D88012000334E5
:104DE00004340A6E0A50D8A4F8EF26F0FAEF26F041
:104DF00004EF27F0000E016E000E026E000E036E2F
:104E0000000E046E71EF27F001C005F002C006F03D
:104E100003C007F004C008F0200E14EF27F0D8906C
:104E20000832073206320532E82E0FEF27F0055020
:104E3000096E038EFF0E0116FF0E0216FF0E0316FB
:104E4000000E0416960E0A5E0ABE2BEF27F029EF1D
:104E500027F041EF27F00A50800A970FD8B033EFC0
:104E600027F035EF27F037EF27F0FAEF26F0D8904C
:104E700004320332023201320A3E37EF27F059EF93
:104E800027F01F0E0A6447EF27F049EF27F051EF94
:104E900027F0FAEF26F0D8900136023603360436B2
:104EA0000A060A50D8A457EF27F059EF27F04BEF26
:104EB00027F00950D8B45FEF27F061EF27F069EFD2
:104EC00027F0041E031E021E016C000E02220322A4
:104ED000042201C001F002C002F003C003F004C0CC
:104EE00004F01200000E1A14226E000E1B14236E22
:104EF000800E1C14246E7F0E1D14256E225023106C
:104F000024102510D8A487EF27F089EF27F091EF20
:104F100027F0000E1A6E000E1B6E000E1C6E000EA7
:104F20001D6E000E1E14226E000E1F14236E800EC6
:104F30002014246E7F0E2114256E2250231024107D
:104F40002510D8A4A6EF27F0A8EF27F0B0EF27F0A0
:104F5000000E1E6E000E1F6E000E206E000E216EE3
:104F60001DAEB5EF27F0B7EF27F0C0EF27F01A6CB2
:104F70001B1ED8B01B2A1C1ED8B01C2A800E1D5622
:104F800021AEC5EF27F0C7EF27F0D0EF27F01E6C5A
:104F90001F1ED8B01F2A201ED8B0202A800E2156EE
:104FA000000E1A1A000E1B1A000E1C1A800E1D1A73
:104FB000000E1E1A000E1F1A000E201A800E211A53
:104FC0001E501A5C1F501B5820501C5821501D5851
:104FD000D8B0EDEF27F0EFEF27F0F2EF27F0D89001
:104FE000F3EF27F0D8801200BBC126F1BCC127F136
:104FF000BDC128F1BEC129F11CC126F11DC127F197
:105000001EC128F11FC129F126C120F127C121F1BC
:1050100028C122F129C123F1180E15EF28F0010152
:10502000D8902333223321332033E82E0FEF28F09A
:105030002051246F256B24512511D8A422EF28F08C
:1050400024EF28F044EF28F0D8902635206F27353C
:10505000216F2835226F2935236F2051211122110C
:105060002311D8A436EF28F038EF28F03EEF28F0CF
:10507000000E1D6F020E1C6F73EF28F0000E1D6FE7
:10508000030E1C6F73EF28F024292511D8A44BEFD1
:1050900028F04DEF28F06FEF28F026C120F127C14E
:1050A00021F128C122F129C123F1090ED89020371E
:1050B000213722372337E82E56EF28F020512111CF
:1050C00022112311D8B467EF28F06AEF28F0010EFF
:1050D0006BEF28F0000E1C6F1D6B73EF28F0000EB5
:1050E0001D6F040E1C6F1200A7EC34F00AC001F013
:1050F0000BC002F0BAEC31F001C00EF002C00FF0AC
:10510000000E136E000E126EB0EF28F013BE92EF79
:1051100028F0135009E1080E125CD8A092EF28F095
:1051200094EF28F096EF28F0BFEF28F012500A24F1
:105130000C6E13500B200D6E0CC0F6FF0DC0F7FF68
:10514000F86A050EF76403D00800F55005D0F6CFD5
:10515000E1FFF7CFE2FFE750DAEC34F0124A132A0E
:105160000E50125C1350800A0C6E0F50800A0C58BF
:10517000D8A0BDEF28F0BFEF28F086EF28F0000E92
:10518000086E010E75EC32F0000E116E080E106EF6
:10519000E4EF28F010500A240C6E11500B200D6E15
:1051A0000CC0F6FF0DC0F7FFF86A050EF76403D0D8
:1051B0000800F55005D0F6CFE1FFF7CFE2FFE7504A
:1051C000DAEC34F0104A112A0E50105C1150800AAB
:1051D0000C6E0F50800A0C58D8A0F1EF28F0F3EFB6
:1051E00028F0CAEF28F01200BBC10BF0BCC10CF0D4
:1051F000BDC10DF0BEC10EF001C00BF002C00CF03D
:1052000003C00DF004C00EF00BC005F00CC006F09A
:105210000DC007F00EC008F0180E14EF29F0D8905A
:105220000832073206320532E82E0FEF29F005501A
:10523000096E0A6A09500A10D8A421EF29F023EF59
:1052400029F043EF29F0D8900B34056E0C34066E2C
:105250000D34076E0E34086E055006100710081046
:10526000D8A435EF29F037EF29F03DEF29F0000EF3
:10527000026E020E016E72EF29F0000E026E030E36
:10528000016E72EF29F009280A10D8A44AEF29F01C
:105290004CEF29F06EEF29F00BC005F00CC006F0C2
:1052A0000DC007F00EC008F0090ED890053606367E
:1052B00007360836E82E55EF29F00550061007107E
:1052C0000810D8B466EF29F069EF29F0010E6AEFF3
:1052D00029F0000E016E026A72EF29F0000E026ED4
:1052E000040E016E1200DEEC32F0000E0101B66F0A
:1052F000000EB56F5E0E256F060E266FE0EC24F0F3
:10530000060E0101B46F130EB36FAD0EE82EFED77B
:10531000B32FFCD7B42FFAD700D0550E0101256F5B
:10532000060E266FE0EC24F0060E0101B46F130E9A
:10533000B36FAD0EE82EFED7B32FFCD7B42FFAD73C
:1053400000D04B0E0101256F060E266FE0EC24F015
:10535000060E0101B46F130EB36FAD0EE82EFED72B
:10536000B32FFCD7B42FFAD700D0400E0101256F20
:10537000060E266FE0EC24F0060E0101B46F130E4A
:10538000B36FAD0EE82EFED7B32FFCD7B42FFAD7EC
:1053900000D00101B54BB62BB6BFD8EF29F0B651FE
:1053A00009E1030EB55DD8A0D8EF29F0DAEF29F0B6
:1053B0007AEF29F0330E256F060E266FE0EC24F00D
:1053C000150E0101B46F4B0EB36FBE0EE82EFED763
:1053D000B32FFCD7B42FFAD700F0E0EF29F05DEF40
:1053E00000F001012D6FFC0E8916F00E8D16000ED7
:1053F000926E000E966E000E0F01386F000E3C6F1D
:10540000020E01012C6F040E2B6FBA0EE82EFED790
:105410002B2FFCD72C2FFAD700F0030E01011C6FA5
:10542000000EEBEC2EF0180E01012B6F5F0EE82E34
:10543000FED72B2FFCD7030E01011C6F000EEBECE7
:105440002EF0C80EE82EFED7030E01011C6F000ED1
:10545000EBEC2EF0420EE82EFED700D001012D51CC
:10546000D8A435EF2AF037EF2AF03EEF2AF0000EED
:105470001C6F000EEBEC2EF043EF2AF0100E1F6FA6
:10548000000EDCEC33F0420EE82EFED700D029C12E
:1054900023F12AC124F101012D51A9EC33F079EC5B
:1054A00034F0000E0101236F000E246F040E56EC41
:1054B00034F0000E0101236F020E68EC34F012008C
:1054C0001CC123F11DC124F11EC125F11FC126F10C
:1054D00001012007D8A02107202906E12129D8A40D
:1054E00074EF2AF076EF2AF083EF2AF0000E1D6F9A
:1054F000000E1C6FCBEF2AF0234B242B254B262BC1
:105500002007D8A0210723C1D9FF24C1DAFFDF502B
:10551000D8B48DEF2AF08FEF2AF0BAEF2AF025C128
:10552000F6FF26C1F7FF0800F5500009D8B49BEF3D
:105530002AF09DEF2AF0BAEF2AF020512111D8B4B9
:10554000A4EF2AF0A6EF2AF0BAEF2AF023C1D9FF80
:1055500024C1DAFFDF50226F25C1F6FF26C1F7FF15
:105560000800F5502219D8B4B8EF2AF0BAEF2AF0A3
:105570007CEF2AF023C1D9FF24C1DAFFDF50226F6C
:1055800025C1F6FF26C1F7FF0800F550225D1C6F0C
:105590001D6BD8A01D07120001C008F002C009F061
:1055A00003C00AF004C00BF00506D8A006060528C3
:1055B00006E10628D8A4DFEF2AF0E1EF2AF0EEEFAB
:1055C0002AF0000E026E000E016E36EF2BF0084A34
:1055D000092A0A4A0B2A0506D8A0060608C0D9FFE0
:1055E00009C0DAFFDF50D8B4F8EF2AF0FAEF2AF05A
:1055F00025EF2BF00AC0F6FF0BC0F7FF0800F550AF
:105600000009D8B406EF2BF008EF2BF025EF2BF0B4
:1056100005500610D8B40FEF2BF011EF2BF025EF4B
:105620002BF008C0D9FF09C0DAFFDF50076E0AC0AF
:10563000F6FF0BC0F7FF0800F5500718D8B423EFAA
:105640002BF025EF2BF0E7EF2AF008C0D9FF09C0B7
:10565000DAFFDF50076E0AC0F6FF0BC0F7FF080045
:10566000F550075C016E026AD8A002061200010123
:105670001E511F11D8B43FEF2BF041EF2BF04AEF32
:105680002BF01E511F11D8A448EF2BF04AEF2BF03E
:105690004FEF2BF01C51E1EC34F09CEF2BF020EE9F
:1056A00004F01E51D9261F51DA22DE50DE10D8B484
:1056B0005CEF2BF05EEF2BF079EF2BF020EE04F097
:1056C0001E51D9261F51DA2210EE02F01E51E1269A
:1056D0001F51E222DE50E65CE650800A246FDE5065
:1056E000800A2459D8B077EF2BF079EF2BF09CEF9C
:1056F0002BF020EE02F01E51D9261F51DA22DECF08
:1057000020F1DDCF21F11EC1D9FF1FC1DAFFDECFAD
:1057100022F1DDCF23F120512225D96E2151232101
:10572000DA6E1CC1DFFF20EE02F01E51D9261F5198
:10573000DA22DE2A000EDD2212000101C5A1A3EF4C
:105740002BF0A5EF2BF0AFEF2BF02EC125F12FC1E1
:1057500026F12CC127F12DC128F12DEC32F00101E9
:1057600031BFB5EF2BF0B7EF2BF0BDEF2BF030C111
:1057700035F131C136F1C1EF2BF0000E366F000E5E
:10578000356F000E346F000E336FD4EF2BF0000E28
:105790001D6F200E1C6F2CC11EF12DC11FF137ECA7
:1057A0002BF00101334B342B3551335D3451800ADA
:1057B000326F3651800A3259D8A0E1EF2BF0E3EF77
:1057C0002BF0C7EF2BF0C5B1E8EF2BF0EAEF2BF091
:1057D000F4EF2BF02EC125F12FC126F12CC127F1BA
:1057E0002DC128F12DEC32F02EC11CF12FC11DF17D
:1057F00016EC31F0010135511C252C6F36511D215D
:105800002D6F120003500410D8B409EF2CF00BEFE9
:105810002CF014EF2CF003500410D8A412EF2CF04D
:1058200014EF2CF019EF2CF00150E2EC34F066EF9D
:105830002CF020EE04F00350D9260450DA22DE507A
:10584000DE10D8B426EF2CF028EF2CF043EF2CF02C
:1058500020EE04F00350D9260450DA2210EE02F0B4
:105860000350E1260450E222DE50E65CE650800A56
:10587000096EDE50800A0958D8B041EF2CF043EF92
:105880002CF066EF2CF020EE02F00350D9260450E5
:10589000DA22DECF05F0DDCF06F003C0D9FF04C069
:1058A000DAFFDECF07F0DDCF08F005500724D96E10
:1058B00006500820DA6E01C0DFFF20EE02F0035030
:1058C000D9260450DA22DE2A000EDD221200000E54
:1058D0000101216F1FBF71EF2CF06FEF2CF077EFFC
:1058E0002CF01E6D1F1FD8B01F2B010E216F1DBF86
:1058F0007EEF2CF07CEF2CF084EF2CF01C6D1D1F44
:10590000D8B01D2B010E211B000E236F000E226F3D
:105910001E511F11D8B48FEF2CF091EF2CF0B9EF7E
:105920002CF0010E206F99EF2CF0D8901E371F3706
:10593000202B1FAF9EEF2CF0A0EF2CF095EF2CF05A
:10594000D890223723371E511C5D1F511D59D8A0F6
:10595000ACEF2CF0AEEF2CF0B3EF2CF01E511C5F2F
:105960001F511D5B2281D8901F331E33202FA0EFC3
:105970002CF02151D8B4BFEF2CF0C1EF2CF0C5EFC3
:105980002CF0226D231FD8B0232B22C11CF123C180
:105990001DF112000101C5A1D0EF2CF0D2EF2CF0C7
:1059A000DCEF2CF013C00AF014C00BF011C00CF0A7
:1059B00012C00DF0BCEC32F016BEE1EF2CF0E3EFBC
:1059C0002CF0E9EF2CF015C01AF016C01BF0EDEF2B
:1059D0002CF0000E1B6E000E1A6E000E196E000EDB
:1059E000186EFFEF2CF0000E026E200E016E11C03B
:1059F00003F012C004F002EC2CF0184A192A1A50D5
:105A0000185C1950800A176E1B50800A1758D8A0CE
:105A10000CEF2DF00EEF2DF0F3EF2CF00101C5B1DE
:105A200014EF2DF016EF2DF020EF2DF013C00AF03B
:105A300014C00BF011C00CF012C00DF0BCEC32F031
:105A400013C001F014C002F0BAEC31F01A50012476
:105A5000116E1B500220126E1200000E066E04BE64
:105A600036EF2DF034EF2DF03CEF2DF0036C041EDB
:105A7000D8B0042A010E066E02BE43EF2DF041EFAE
:105A80002DF049EF2DF0016C021ED8B0022A010E54
:105A9000061A000E086E000E076E03500410D8B4EC
:105AA00054EF2DF056EF2DF07EEF2DF0010E056E28
:105AB0005EEF2DF0D89003360436052A04AE63EF6E
:105AC0002DF065EF2DF05AEF2DF0D89007360836FF
:105AD0000350015C04500258D8A071EF2DF073EF11
:105AE0002DF078EF2DF00350015E0450025A07802C
:105AF000D89004320332052E65EF2DF00650D8B44D
:105B000084EF2DF086EF2DF08AEF2DF0076C081E44
:105B1000D8B0082A07C001F008C002F01200000E39
:105B20000101216F1DBF99EF2DF097EF2DF09FEF31
:105B30002DF01C6D1D1FD8B01D2B010E216F1FBF36
:105B4000A6EF2DF0A4EF2DF0AAEF2DF01E6D1F1F74
:105B5000D8B01F2B1E511F11D8B4B1EF2DF0B3EFE9
:105B60002DF0D7EF2DF0010E206FBBEF2DF0D89068
:105B70001E371F37202B1FAFC0EF2DF0C2EF2DF0C7
:105B8000B7EF2DF01E511C5D1F511D59D8A0CBEF52
:105B90002DF0CDEF2DF0D1EF2DF01E511C5F1F51D8
:105BA0001D5BD8901F331E33202FC2EF2DF02151E3
:105BB000D8B4DDEF2DF0DFEF2DF0E3EF2DF01C6D0D
:105BC0001D1FD8B01D2B1CC11CF11DC11DF11200E1
:105BD000000E066E02BEF1EF2DF0EFEF2DF0F7EFA5
:105BE0002DF0016C021ED8B0022A010E066E04BE12
:105BF000FEEF2DF0FCEF2DF002EF2EF0036C041EF3
:105C0000D8B0042A03500410D8B409EF2EF00BEFDB
:105C10002EF02FEF2EF0010E056E13EF2EF0D89020
:105C200003360436052A04AE18EF2EF01AEF2EF0D4
:105C30000FEF2EF00350015C04500258D8A023EF60
:105C40002EF025EF2EF029EF2EF00350015E0450C8
:105C5000025AD89004320332052E1AEF2EF0065065
:105C6000D8B435EF2EF037EF2EF03BEF2EF0016C6D
:105C7000021ED8B0022A01C001F002C002F01200D8
:105C8000000E01011C15246F000E1D15256F800EDE
:105C90001E15266F7F0E1F15276F24512511261103
:105CA0002711D8A456EF2EF058EF2EF060EF2EF00B
:105CB000000E1C6F000E1D6F000E1E6F000E1F6F7A
:105CC000000E2015246F000E2115256F800E221561
:105CD000266F7F0E2315276F2451251126112711BA
:105CE000D8A475EF2EF077EF2EF07FEF2EF0000E98
:105CF000206F000E216F000E226F000E236F2051C7
:105D00001C190FE121511D190CE122511E1909E145
:105D100023511F19D8B48FEF2EF091EF2EF094EF8E
:105D20002EF0D89095EF2EF0D8801200000E0114BE
:105D3000096E000E02140A6E800E03140B6E7F0EA5
:105D400004140C6E09500A100B100C10D8A4ABEF01
:105D50002EF0ADEF2EF0B5EF2EF0000E016E000E1E
:105D6000026E000E036E000E046E000E0514096E26
:105D7000000E06140A6E800E07140B6E7F0E0814B8
:105D80000C6E09500A100B100C10D8A4CAEF2EF09C
:105D9000CCEF2EF0D4EF2EF0000E056E000E066E46
:105DA000000E076E000E086E055001180FE1065038
:105DB00002180CE10750031809E108500418D8B480
:105DC000E4EF2EF0E6EF2EF0E9EF2EF0D890EAEFB8
:105DD0002EF0D880120001011E6F8D9401011EB1BA
:105DE00002D08D9001D08D808D921CC11DF1010ECD
:105DF00001011D1789501D19FE0B1D19896E1CC14B
:105E00001DF1D8901D33010E1D171D4789501D1916
:105E1000FD0B1D19896E1CC11DF1D8901D33D89042
:105E20001D33010E1D171D471D4789501D19FB0B02
:105E30001D19896E1CC11DF1D8901D33D8901D33DA
:105E4000D8901D33010E1D171D471D471D47895052
:105E50001D19F70B1D19896E8D84060EE82EFED7CD
:105E600000D08D94060EE82EFED700D0120001015E
:105E7000026F8D94010102B102D08D9001D08D800E
:105E80008D9200C101F1010E010101178950011924
:105E9000FE0B0119896E00C101F1D8900133010E8A
:105EA0000117014789500119FD0B0119896E00C1C5
:105EB00001F1D8900133D8900133010E0117014749
:105EC000014789500119FB0B0119896E00C101F1CD
:105ED000D8900133D8900133D8900133010E0117C7
:105EE00001470147014789500119F70B0119896ED4
:105EF0008D84060EE82EFED700D08D94060EE82E77
:105F0000FED700D01200036E8D9403B002D08D90A6
:105F100001D08D808D9201C002F0010E02168950D1
:105F20000218FE0B0218896E01C002F0D8900232EE
:105F3000010E0216024689500218FD0B0218896EE6
:105F400001C002F0D8900232D8900232010E02163F
:105F50000246024689500218FB0B0218896E01C0E6
:105F600002F0D8900232D8900232D8900232010E5C
:105F7000021602460246024689500218F70B021822
:105F8000896E8D84060EE82EFED700D08D94060E05
:105F9000E82EFED700D01200A7C1ABF1A8C1ACF12A
:105FA000000E0101C06F000EBF6FEAEF2FF0A5C118
:105FB0008DF1A6C18EF1AB0E8F6F010E906FA9C14E
:105FC00091F1AAC192F1FEEC0EF001018D51BF27B3
:105FD0008E51C023ABC1F6FFACC1F7FF0800F550EE
:105FE0000009D8A4F6EF2FF0F8EF2FF0D7EF2FF03D
:105FF000BFC1A5F1C0C1A6F11200BF0E0101246FFF
:10600000FF0E256F22C126F123C127F12451262737
:106010002551272327510AE11A0E265DD8A013EF38
